:1000000045C0000060C000005EC000005CC0000091
:100010005AC0000058C0000056C0000054C0000084
:1000200052C0000050C000004EC000004CC0000094
:100030004AC00000B9C0000046C0000044C0000033
:1000400042C0000040C000003EC000003CC00000B4
:100050003AC0000038C0000036C0000034C00000C4
:1000600032C0000030C000002EC000002CC00000D4
:100070002AC0000028C0000026C0000024C00000E4
:1000800022C0000020C000001EC0000011241FBEBE
:10009000CFEFD0E4DEBFCDBF11E0A0E0B1E0E0E003
:1000A000FBE000E00BBF02C007900D92AA30B10741
:1000B000D9F721E0AAE0B1E001C01D92A631B20754
:1000C000E1F763D31BC59CCFCF93DF9300D000D063
:1000D000CDB7DEB769837A838B839C8389819A81CC
:1000E000AB81BC818093000190930101A093020138
:1000F000B09303018091000190910101A091020150
:10010000B091030180930B0190930C01A0930D011A
:10011000B0930E0100000F900F900F900F90DF91A1
:10012000CF910895CF93DF93CDB7DEB781E890E00C
:100130002BE0FC01208388E890E02DE730E0FC0113
:10014000318320838FE690E022E0FC01208384E865
:1001500090E0FC01118210828091000190910101D8
:10016000A0910201B091030180930B0190930C01C7
:10017000A0930D01B0930E018FE590E02FE530E0E4
:10018000F90120812068FC0120830000DF91CF91DC
:100190000895CF93DF93CDB7DEB781E080930A0156
:1001A0000000DF91CF9108951F920F9200905F00A1
:1001B0000F92112400905B000F922F933F934F9367
:1001C0005F936F937F938F939F93AF93BF93EF93BF
:1001D000FF93CF93DF93CDB7DEB780910B01909162
:1001E0000C01A0910D01B0910E010197A109B10977
:1001F00080930B0190930C01A0930D01B0930E011D
:1002000080910B0190910C01A0910D01B0910E0114
:10021000892B8A2B8B2B89F4BCDF80910001909174
:100220000101A0910201B091030180930B01909311
:100230000C01A0930D01B0930E010000DF91CF914E
:10024000FF91EF91BF91AF919F918F917F916F91AE
:100250005F914F913F912F910F9000925B000F9013
:1002600000925F000F901F901895CF93DF931F921D
:10027000CDB7DEB7898389818130E1F081EC90E0F0
:1002800021EC30E0F90120812861FC01208382EC1F
:1002900090E022EC30E0F90120812660FC0120830F
:1002A00084EC90E023E3FC01208385EC90E0FC01EA
:1002B00010821BC089EC90E029EC30E0F90120812C
:1002C0002861FC0120838AEC90E02AEC30E0F901FF
:1002D00020812660FC0120838CEC90E023E3FC016C
:1002E00020838DEC90E0FC01108200000F90DF91E4
:1002F000CF910895CF93DF931F92CDB7DEB7898357
:100300008981813031F080EC90E0FC018081807245
:1003100005C088EC90E0FC01808180720F90DF9135
:10032000CF910895CF93DF931F92CDB7DEB7898326
:100330008981813031F080EC90E0FC01808180780F
:1003400005C088EC90E0FC01808180780F90DF91FF
:10035000CF910895CF93DF931F92CDB7DEB78983F6
:1003600089818130A1F006C086EC90E0FC0180819B
:1003700080930F0180EC90E0FC0180818823A4F33E
:100380000CC08EEC90E0FC01808180930F0188EC22
:1003900090E0FC0180818823A4F300000F90DF919E
:1003A000CF910895CF93DF9300D0CDB7DEB7898387
:1003B0006A838A81813089F0000080EC90E0FC0142
:1003C0008081882F90E080729927892BB1F386EC89
:1003D00090E02981FC01208310C0000088EC90E0AF
:1003E000FC018081882F90E080729927892BB1F3DE
:1003F0008EEC90E02981FC01208300000F900F908B
:10040000DF91CF910895CF93DF93CDB7DEB78CE71F
:1004100090E020E4FC0120838AE790E027E8FC01DB
:1004200020830000DF91CF910895CF93DF931F9237
:10043000CDB7DEB789838981877089838CE790E0A7
:100440002CE730E0F9012081322F387F2981232BDE
:10045000FC0120838AE790E02AE730E0F90120815F
:100460002064FC01208300008AE790E0FC01808189
:10047000882F90E080749927892BB1F788E790E066
:10048000FC01808191810F90DF91CF910895CF93EE
:10049000DF93CDB7DEB780911101882F90E08130D6
:1004A000910591F0823091051CF4892B49F06AC0C6
:1004B0008230910509F441C0039709F44FC062C02E
:1004C00081E0809311015EC080E0AFDF9093140162
:1004D000809313018091130190911401853F914005
:1004E00080F085E290E021E0FC01208380E002DFE3
:1004F000882319F060E088E055DF83E080931101E4
:1005000041C080911301909114018C32914080F48C
:1005100085E290E022E0FC01208380E0EBDE88238E
:1005200019F060E087E03EDF82E0809311012AC08D
:1005300085E290E0FC01108225C080E076DF909398
:1005400014018093130180911301909114018D3255
:100550009140A8F081E08093110111C080E065DF37
:1005600090931401809313018091130190911401D1
:10057000843F914030F481E08093110102C000007B
:1005800001C000000000DF91CF910895CF93DF9369
:10059000CDB7DEB780911001882F90E0009719F059
:1005A000019759F04BC081E08093100182E290E006
:1005B000FC0180818093150141C080911501882F35
:1005C00090E0880F991F8F3F910509F054F48091B6
:1005D0000801882331F080911501880F809315015F
:1005E00012C080911501882F90E0880F991F8F3FCE
:1005F000910549F044F09091080181E0992309F0B8
:1006000080E08093080180911501883050F080913E
:100610000801882331F48091150186958093150196
:100620000CC080911501883040F49091080181E060
:10063000992309F080E080930801000082E290E0B5
:1006400020911501FC0120830000DF91CF910895D6
:10065000CF93DF93CDB7DEB780911201882F90E062
:100660008230910579F1833091052CF4009771F077
:10067000019781F084C08430910509F453C084301F
:100680009105C4F1059709F465C079C081E08093B4
:10069000120175C088E290E0A0E0B0E08093040110
:1006A00090930501A0930601B093070182E0809327
:1006B0001201000080E01EDE8823E1F360E081E6A5
:1006C00071DE5DC08EE190E0A0E0B0E080930401B7
:1006D00090930501A0930601B093070183E08093F6
:1006E0001201000080E006DE8823E1F360E082E68C
:1006F00059DE45C084E190E0A0E0B0E080930401C1
:1007000090930501A0930601B093070184E08093C4
:100710001201000080E0EEDD8823E1F360E083E673
:1007200041DE2DC08AE090E0A0E0B0E080930401BB
:1007300090930501A0930601B093070185E0809393
:100740001201000080E0D6DD8823E1F360E084E65A
:1007500029DE15C085E090E0A0E0B0E080930401C0
:1007600090930501A0930601B0930701000080E07B
:10077000C1DD8823E1F360E085E614DE000080E05F
:10078000E9DD0000DF91CF910895CF93DF93CDB7DE
:10079000DEB764970FB6F894DEBF0FBECDBF33DE71
:1007A00081E290E02CEFFC01208382E290E024E0E3
:1007B000FC01208384E290E02FEFFC01208385E29E
:1007C00090E0FC01108287E290E0FC01108288E258
:1007D00090E0FC0110828AE290E02FEFFC01208380
:1007E0008BE290E0FC01108288EE93E0A0E0B0E0A4
:1007F0008D879E87AF87B88B19821A821B821C82D5
:100800001D821E821F82188619861A861B861C86E8
:1008100080E02BDD80E09EDD809104019091050158
:10082000A0910601B0910701BC01CD014DDC7ADC3D
:100830001092110110921001109212018EE290E0BC
:1008400032D1DC01CB01BC01CD019BD0DC01CB015D
:10085000898B9A8BAB8BBC8B1ADE2D813E814F81AD
:1008600058858D859E85AF85B889281739074A0731
:100870005B0780F0EDDE8091040190910501A0916D
:100880000601B0910701BC01CD011EDC1D821E8254
:100890001F8218868091040190910501A0910601A4
:1008A000B091070129813A814B815C812817390772
:1008B0004A075B0728F06ADE19821A821B821C82B3
:1008C00080E030DD8823C9F029853A854B855C8539
:1008D00089899A89AB89BC8982179307A407B507D0
:1008E00060F469857A858B859C8577D0DC01CB01A6
:1008F000AC01BD018EE290E0DBD0000080910A01E6
:100900008823E1F310920A0180910401909105017E
:10091000A0910601B091070129853A854B855C8538
:10092000820F931FA41FB51F89879A87AB87BC8747
:100930008091040190910501A0910601B0910701F9
:100940002D813E814F815885820F931FA41FB51FB3
:100950008D839E83AF83B8878091040190910501B8
:10096000A0910601B091070129813A814B815C81F8
:10097000820F931FA41FB51F89839A83AB83BC8307
:100980006BCF70D088F09F5790F0B92F9927B7514F
:10099000A0F0D1F0660F771F881F991F1AF0BA9543
:1009A000C9F712C0B13081F077D0B1E0089574C0BA
:1009B000672F782F8827B85F39F0B93FCCF3869539
:1009C00077956795B395D9F73EF490958095709596
:1009D00061957F4F8F4F9F4F0895E89409C097FB13
:1009E0003EF490958095709561957F4F8F4F9F4F06
:1009F0009923A9F0F92F96E9BB279395F69587954A
:100A000077956795B795F111F8CFFAF4BB0F11F40C
:100A100060FF1BC06F5F7F4F8F4F9F4F16C08823B3
:100A200011F096E911C0772321F09EE8872F762FE9
:100A300005C0662371F096E8862F70E060E02AF02A
:100A40009A95660F771F881FDAF7880F9695879516
:100A500097F9089557FD9058440F551F59F05F3F7F
:100A600071F04795880F97FB991F61F09F3F79F0D0
:100A700087950895121613061406551FF2CF469552
:100A8000F1DF08C0161617061806991FF1CF8695D4
:100A90007105610508940895E894BB2766277727B8
:100AA000CB0197F90895A6E1B0E044E050E00AC018
:100AB000242F17D0252F15D000C012D0272F11C0FA
:100AC000DC01CB01FC01F999FECF06C0F2BDE1BD0E
:100AD000F89A319600B40D9241505040B8F70895FD
:100AE000262FF999FECF1FBA92BD81BD20BD0FB64A
:100AF000F894FA9AF99A0FBE01960895F894FFCFE8
:0A0B000001000000320000000100B7
:00000001FF
