S01B00004353313230425F46696E616C50726F6A6563742E737265637E
S113000045C0000060C000005EC000005CC000008D
S11300105AC0000058C0000056C0000054C0000080
S113002052C0000050C000004EC000004CC0000090
S11300304AC00000B9C0000046C0000044C000002F
S113004042C0000040C000003EC000003CC00000B0
S11300503AC0000038C0000036C0000034C00000C0
S113006032C0000030C000002EC000002CC00000D0
S11300702AC0000028C0000026C0000024C00000E0
S113008022C0000020C000001EC0000011241FBEBA
S1130090CFEFD0E4DEBFCDBF11E0A0E0B1E0ECE3F0
S11300A0F5E000E00BBF02C007900D92AA30B10743
S11300B0D9F721E0AAE0B1E001C01D92A231B20754
S11300C0E1F7A7D139C29CCFCF93DF9300D000D002
S11300D0CDB7DEB769837A838B839C8389819A81C8
S11300E0AB81BC818093000190930101A093020134
S11300F0B09303018091000190910101A09102014C
S1130100B091030180930B0190930C01A0930D0116
S1130110B0930E0100000F900F900F900F90DF919D
S1130120CF910895CF93DF93CDB7DEB781E890E008
S11301302BE0FC01208388E890E02DE730E0FC010F
S1130140318320838FE690E022E0FC01208384E861
S113015090E0FC01118210828091000190910101D4
S1130160A0910201B091030180930B0190930C01C3
S1130170A0930D01B0930E018FE590E02FE530E0E0
S1130180F90120812068FC0120830000DF91CF91D8
S11301900895CF93DF93CDB7DEB781E080930A0152
S11301A00000DF91CF9108951F920F9200905F009D
S11301B00F92112400905B000F922F933F934F9363
S11301C05F936F937F938F939F93AF93BF93EF93BB
S11301D0FF93CF93DF93CDB7DEB780910B0190915E
S11301E00C01A0910D01B0910E010197A109B10973
S11301F080930B0190930C01A0930D01B0930E0119
S113020080910B0190910C01A0910D01B0910E0110
S1130210892B8A2B8B2B89F4BCDF80910001909170
S11302200101A0910201B091030180930B0190930D
S11302300C01A0930D01B0930E010000DF91CF914A
S1130240FF91EF91BF91AF919F918F917F916F91AA
S11302505F914F913F912F910F9000925B000F900F
S113026000925F000F901F901895CF93DF93CDB746
S1130270DEB780910F01882F90E0009719F0019765
S113028059F04BC081E080930F0182E290E0FC01C1
S113029080818093110141C080911101882F90E0E9
S11302A0880F991F8F3F910509F054F4809108013C
S11302B0882331F080911101880F8093110112C0BD
S11302C080911101882F90E0880F991F8F3F91052D
S11302D049F044F09091080181E0992309F080E00D
S11302E08093080180911101883050F080910801B9
S11302F0882331F4809111018695809311010CC0FB
S113030080911101883040F49091080181E0992393
S113031009F080E080930801000082E290E02091DF
S11303201101FC0120830000DF91CF910895CF9348
S1130330DF93CDB7DEB780911001882F90E0823033
S1130340910531F1833091052CF4009769F0019700
S113035079F05BC084309105D9F18430910544F182
S1130360059709F445C051C081E0809310014DC048
S113037088E290E0A0E0B0E080930401909305014E
S1130380A0930601B093070182E0809310013DC061
S11303908EE190E0A0E0B0E0809304019093050129
S11303A0A0930601B093070183E0809310012DC050
S11303B084E190E0A0E0B0E0809304019093050113
S11303C0A0930601B093070184E0809310011DC03F
S11303D08AE090E0A0E0B0E08093040190930501EE
S11303E0A0930601B093070185E0809310010DC02E
S11303F085E090E0A0E0B0E08093040190930501D3
S1130400A0930601B093070100000000DF91CF9193
S11304100895CF93DF93CDB7DEB72C970FB6F8943A
S1130420DEBF0FBECDBF81E290E02FEFFC01208341
S113043082E290E024E0FC01208388EE93E0A0E0D7
S1130440B0E089879A87AB87BC8719821A821B829E
S11304501C821D821E821F82188680910401909145
S11304600501A0910601B0910701BC01CD012CDE6C
S113047059DE2D813E814F81588589859A85AB85CA
S1130480BC85281739074A075B0780F050DF809145
S1130490040190910501A0910601B0910701BC01EE
S11304A0CD0112DE1D821E821F82188680910401F6
S11304B090910501A0910601B091070129813A812B
S11304C04B815C81281739074A075B0728F0CDDE8A
S11304D019821A821B821C82000080910A018823DF
S11304E0E1F310920A018091040190910501A09119
S11304F00601B09107012D813E814F815885820FFD
S1130500931FA41FB51F8D839E83AF83B8878091EB
S1130510040190910501A0910601B0910701298180
S11305203A814B815C81820F931FA41FB51F89837D
S10F05309A83AB83BC839DCFF894FFCF6B
S10D053C010000003200000001007D
S9030000FC
